{
  "_format": "hh-sol-artifact-1",
  "contractName": "MyContract",
  "sourceName": "contracts/Interface.sol",
  "abi": [
    {
      "inputs": [],
      "stateMutability": "nonpayable",
      "type": "constructor"
    },
    {
      "inputs": [],
      "name": "count",
      "outputs": [
        {
          "internalType": "uint256",
          "name": "",
          "type": "uint256"
        }
      ],
      "stateMutability": "view",
      "type": "function"
    },
    {
      "inputs": [],
      "name": "increment",
      "outputs": [],
      "stateMutability": "nonpayable",
      "type": "function"
    },
    {
      "inputs": [],
      "name": "incrementCounter",
      "outputs": [],
      "stateMutability": "nonpayable",
      "type": "function"
    }
  ],
  "bytecode": "0x608060405234801561001057600080fd5b506100556040518060400160405280600b81526020017f636f6e7374727563746f7200000000000000000000000000000000000000000081525061005a60201b60201c565b61023b565b6100f68160405160240161006e91906101ea565b6040516020818303038152906040527f41304fac000000000000000000000000000000000000000000000000000000007bffffffffffffffffffffffffffffffffffffffffffffffffffffffff19166020820180517bffffffffffffffffffffffffffffffffffffffffffffffffffffffff83818316178352505050506100f960201b60201c565b50565b61011a8161011561011d60201b6101061761013e60201b60201c565b60201c565b50565b60006a636f6e736f6c652e6c6f679050600080835160208501845afa505050565b61015060201b6101e517819050919050565b61015861020c565b565b600081519050919050565b600082825260208201905092915050565b60005b83811015610194578082015181840152602081019050610179565b60008484015250505050565b6000601f19601f8301169050919050565b60006101bc8261015a565b6101c68185610165565b93506101d6818560208601610176565b6101df816101a0565b840191505092915050565b6000602082019050818103600083015261020481846101b1565b905092915050565b7f4e487b7100000000000000000000000000000000000000000000000000000000600052605160045260246000fd5b6102eb8061024a6000396000f3fe608060405234801561001057600080fd5b50600436106100415760003560e01c806306661abd146100465780635b34b96614610064578063d09de08a1461006e575b600080fd5b61004e610078565b60405161005b9190610208565b60405180910390f35b61006c61007e565b005b6100766100e0565b005b60005481565b3073ffffffffffffffffffffffffffffffffffffffff1663d09de08a6040518163ffffffff1660e01b8152600401600060405180830381600087803b1580156100c657600080fd5b505af11580156100da573d6000803e3d6000fd5b50505050565b60016000808282546100f29190610252565b92505081905550610104600054610127565b565b60006a636f6e736f6c652e6c6f679050600080835160208501845afa505050565b6101bd8160405160240161013b9190610208565b6040516020818303038152906040527ff82c50f1000000000000000000000000000000000000000000000000000000007bffffffffffffffffffffffffffffffffffffffffffffffffffffffff19166020820180517bffffffffffffffffffffffffffffffffffffffffffffffffffffffff83818316178352505050506101c0565b50565b6101d7816101cf6101066101da565b63ffffffff16565b50565b6101e5819050919050565b6101ed610286565b565b6000819050919050565b610202816101ef565b82525050565b600060208201905061021d60008301846101f9565b92915050565b7f4e487b7100000000000000000000000000000000000000000000000000000000600052601160045260246000fd5b600061025d826101ef565b9150610268836101ef565b92508282019050808211156102805761027f610223565b5b92915050565b7f4e487b7100000000000000000000000000000000000000000000000000000000600052605160045260246000fdfea264697066735822122078ca432c491eea1b1be43f24149a0e0f7de8068bcb534e9ceebcac9b08a4733864736f6c63430008180033",
  "linkReferences": {},
  "deployedLinkReferences": {}
}